:100000000C9461000C947E000C947E000C947E0095
:100010000C947E000C947E000C947E000C947E0068
:100020000C947E000C947E000C947E000C947E0058
:100030000C947E000C947E000C947E000C947E0048
:100040000C9490010C947E000C947E000C947E0025
:100050000C947E000C947E000C947E000C947E0028
:100060000C947E000C947E00000000080002010049
:100070000003040700000000000000000102040863
:100080001020408001020408102001020408102002
:10009000040404040404040402020202020203032E
:1000A00003030303000000002300260029000000D2
:1000B0000000250028002B0000000000240027007D
:1000C0002A0011241FBECFEFD8E0DEBFCDBF11E064
:1000D000A0E0B1E0E0EFFCE002C005900D92A0319D
:1000E000B107D9F721E0A0E1B1E001C01D92A4332E
:1000F000B207E1F70E9481010C9476060C9400008F
:100100000E9492000C94D1050E940D010E94C90525
:100110000E94A4000E94D5050E94C7000E94DD0530
:100120000C94EA00CF93C0E061E08C2F0E94AB02F8
:10013000CF5FC031C9F762E080E10E94AB0262E0AC
:1001400081E1CF910C94AB02EF92FF921F93CF937A
:10015000DF937C01C3E0D0E013E0C7010C2E02C0A6
:10016000959587950A94E2F780FF04C061E0812F9E
:100170008C1B03C060E0812F8C1B0E94E70221973B
:1001800060F7DF91CF911F91FF90EF900895EF926C
:10019000FF921F93CF93DF937C01C5E0D0E019E07D
:1001A000C7010C2E02C0959587950A94E2F780FF4F
:1001B00004C061E0812F8C1B03C060E0812F8C1B89
:1001C0000E94E702219760F7DF91CF911F91FF9086
:1001D000EF900895EF92FF921F93CF93DF937C01EE
:1001E000C5E0D0E01FE0C7010C2E02C095958795B1
:1001F0000A94E2F780FF04C061E0812F8C1B03C0EA
:1002000060E0812F8C1B0E94E702219760F7DF914D
:10021000CF911F91FF90EF900895CF92DF92EF92D0
:10022000FF920F931F93CF93DF9380E10E941703F8
:10023000892B09F05CC080E090E00E94EA000E94F7
:10024000C905EC010E94D5056C0110E0CE010E94A9
:10025000A40081E10E941703892B71F4CB30D105F2
:1002600014F4219602C0C0E0D0E06CE271E080E0BE
:1002700090E00E940B0211E080E10E941703892B9D
:1002800029F7112319F300E0C6010E94C70081E19C
:100290000E941703892B89F48BE3C816D10424F438
:1002A0008FEFC81AD80A02C0C12CD12C6CE271E0C1
:1002B00080E090E00E940B02012F80E10E94170372
:1002C000892B11F7002301F38CEDE82E87E0F82E3F
:1002D0000CE010E02CE030E040E050E0B601CE0150
:1002E0000E94E50580E10E941703892BD9F3DF9175
:1002F000CF911F910F91FF90EF90DF90CF900895D5
:1003000008950E9447020E9480010E948000C0E080
:10031000D0E00E9484002097E1F30E940000F9CF12
:100320001F920F920FB60F9211242F933F938F932A
:100330009F93AF93BF938091110190911201A0916F
:100340001301B09114013091100123E0230F2D37D8
:1003500020F40196A11DB11D05C026E8230F0296C9
:10036000A11DB11D209310018093110190931201E2
:10037000A0931301B093140180911501909116017F
:10038000A0911701B09118010196A11DB11D809394
:10039000150190931601A0931701B0931801BF9116
:1003A000AF919F918F913F912F910F900FBE0F9022
:1003B0001F9018952FB7F894609111017091120158
:1003C00080911301909114012FBF08953FB7F894C5
:1003D0008091150190911601A0911701B09118011B
:1003E00026B5A89B05C02F3F19F00196A11DB11D90
:1003F0003FBFBA2FA92F982F8827820F911DA11DCB
:10040000B11DBC01CD0142E0660F771F881F991F07
:100410004A95D1F708958F929F92AF92BF92CF9253
:10042000DF92EF92FF926B017C010E94E6014B018B
:100430005C01C114D104E104F10401F10E94090638
:100440000E94E601DC01CB0188199909AA09BB09C0
:10045000883E9340A105B10560F321E0C21AD1089E
:10046000E108F10888EE880E83E0981EA11CB11CFB
:10047000C114D104E104F10419F7DBCFFF90EF9030
:10048000DF90CF90BF90AF909F908F900895789419
:1004900084B5826084BD84B5816084BD85B5826089
:1004A00085BD85B5816085BDEEE6F0E08081816027
:1004B0008083E1E8F0E01082808182608083808127
:1004C00081608083E0E8F0E0808181608083E1EBFF
:1004D000F0E0808184608083E0EBF0E080818160E7
:1004E0008083EAE7F0E0808184608083808182609D
:1004F0008083808181608083808180688083109286
:10050000C1000895833081F028F4813099F0823061
:10051000A1F008958730A9F08830B9F08430D1F483
:10052000809180008F7D03C0809180008F778093C1
:100530008000089584B58F7702C084B58F7D84BD17
:1005400008958091B0008F7703C08091B0008F7DB7
:100550008093B0000895CF93DF9390E0FC01E458BE
:10056000FF4F2491FC01E057FF4F8491882361F1F4
:1005700090E0880F991FFC01E854FF4FC591D4917A
:10058000FC01E255FF4FA591B491611109C09FB7DD
:10059000F8948881209582238883EC912E230BC0C8
:1005A000623061F49FB7F8943881822F809583235D
:1005B0008883EC912E2B2C939FBF06C08FB7F894A5
:1005C000E8812E2B28838FBFDF91CF9108951F9351
:1005D000CF93DF93282F30E0F901E859FF4F849142
:1005E000F901E458FF4FD491F901E057FF4FC4914E
:1005F000CC23C9F0162F81110E948202EC2FF0E06B
:10060000EE0FFF1FE255FF4FA591B4918FB7F894FD
:10061000111105C09C91ED2FE095E92302C0EC91EA
:10062000ED2BEC938FBFDF91CF911F910895CF9366
:10063000DF93282F30E0F901E859FF4F8491F90149
:10064000E458FF4FD491F901E057FF4FC491CC23F8
:1006500091F081110E948202EC2FF0E0EE0FFF1F5B
:10066000EC55FF4FA591B491EC91ED2381E090E022
:1006700021F480E002C080E090E0DF91CF91089506
:100680006F927F928F929F92AF92BF92CF92DF92A2
:10069000EF92FF920F931F93CF93DF93EA012CE326
:1006A000C22ED12CE12CF12CA70196010E941E062E
:1006B0006883CA01B901A70196010E941E066983D9
:1006C000CA01B90128E130E040E050E00E941E0676
:1006D00069017A016A83CA01B9016C5F7F4F8F4F4C
:1006E0009F4F27E030E040E050E00E941E066F5F21
:1006F0006B83812C912C540140E034E6632E712CE5
:1007000000E911E0242F30E02E54384FF901E37056
:10071000FF27309789F4C901B3010E940A06892B8B
:1007200031F4C901B8010E940A06892B29F48EE62A
:1007300091E0A0E0B0E004C08DE691E0A0E0B0E080
:10074000880E991EAA1EBB1ED501C401AA27BB276D
:10075000C816D906EA06FB0610F04F5FD3CF4E83CA
:10076000309799F4C90164E670E00E940A06892B6B
:1007700039F4C90160E971E00E940A06892B29F465
:100780008EE691E0A0E0B0E004C08DE691E0A0E04C
:10079000B0E0881A990AAA0ABB0AC818D908EA0858
:1007A000FB08C90164E670E00E940A068C01C901D9
:1007B00060E971E00E940A06A4E0B1E020E0213087
:1007C00041F4309751F40115110529F4009729F4EB
:1007D00002C04C9103C04DE101C04CE150E060E02B
:1007E00070E0C416D506E606F70640F0C41AD50A2E
:1007F000E60AF70A2F5F11962C3009F72F5F2D8339
:10080000C394CC82DF91CF911F910F91FF90EF9015
:10081000DF90CF90BF90AF909F908F907F906F9020
:100820000895CF92DF92EF92FF92C0902901D0906D
:100830002A01E0902B01F0902C016C157D058E05AE
:100840009F0571F06B017C014DE251E00E94400375
:10085000C0922901D0922A01E0922B01F0922C0142
:10086000FF90EF90DF90CF9008950E9411042091A7
:100870002F01222331F0822F90E02D3020F00C97B1
:1008800008958CE090E008956F927F928F929F92EE
:10089000AF92BF92CF92DF92EF92FF920F931F938E
:1008A000CF93DF93EC01EE81AE2FB0E020E833E38D
:1008B00041EE51E00E944F064B015C0122EB37E014
:1008C000FD0104E610E080E9E82EFF24F394C9015D
:1008D000825B97408E179F07DCF4C90183709927CC
:1008E000892B99F4C901B8010E940A06892B31F4B9
:1008F000C901B7010E940A06892B39F480E8880EE5
:1009000081E5981E81E0A81EB11C2F5F3F4FDFCF0D
:100910006D80712CEE54F84FCF0164E670E00E94B8
:100920000A067C01CF0160E971E00E940A066C01B1
:1009300001E010E0E370FF27061517052CF50230E3
:10094000110581F4309771F4E114F10419F4C11424
:10095000D10441F480E8880E8BE3981E86E2A81E3D
:10096000B11C0FC0D801AD5FBE4FAC91B0E020E824
:1009700031E541E050E00E944F06860E971EA81E0A
:10098000B91E0F5F1F4FD8CF49812A8130E0A0E107
:10099000BEE00E9440066B017C01242F30E0ACE3F6
:1009A000B0E00E944006DC01CB018C0D9D1DAE1D08
:1009B000BF1D28816C017D01C20ED11CE11CF11C00
:1009C000AC81B0E0119720E831E541E050E00E94B1
:1009D0005A06DC01CB018C0D9D1DAE1DBF1DBC0157
:1009E000CD01680D791D8A1D9B1DDF91CF911F914F
:1009F0000F91FF90EF90DF90CF90BF90AF909F90BE
:100A00008F907F906F9008950F931F9360932501AF
:100A10007093260180932701909328010091000193
:100A2000109101012091020130910301DC01CB0101
:100A3000800F911FA21FB31F80931D0190931E0171
:100A4000A0931F01B093200182E090E090931C01DD
:100A500080931B010E94DA016093210170932201AF
:100A600080932301909324011F910F910895CF92B9
:100A7000DF92EF92FF920F931F930E94DA01C090D2
:100A80002101D0902201E0902301F09024018B01FC
:100A90009C010C191D092E093F0980912501909197
:100AA0002601A0912701B0912801083E134021059D
:100AB0003105D0F00196A11DB11D809325019093C1
:100AC0002601A0932701B0932801B701A601485140
:100AD0005C4F6F4F7F4F40932101509322016093F1
:100AE000230170932401C9CF40911D0150911E0133
:100AF00060911F017091200184179507A607B70721
:100B0000C8F1E0911901F0911A01309799F1099516
:100B1000611571058105910519F00E9404052AC02F
:100B20004091000150910101609102017091030117
:100B30008091250190912601A0912701B091280173
:100B4000840F951FA61FB71F80931D0190931E0150
:100B5000A0931F01B093200181E090E020911B0140
:100B600030911C01232B11F480E090E090931C0144
:100B700080931B01609125017091260180912701CE
:100B8000909128011F910F91FF90EF90DF90CF90EF
:100B900008950E9437050E94110480912F0190E072
:100BA00008950E9437050C9435040E9437050E9471
:100BB000110480912E0190E008950E9437050E9453
:100BC000110480912D0190E00895EF92FF920F9310
:100BD00094E6E916F1042CF092EBE91A97E0F90A91
:100BE00003C09EE1E90EF11CE09233010093320153
:100BF0002093310180932F0160932E0140932D01AA
:100C00008DE291E00E9444040F91FF90EF900C94CC
:100C10000405089597FB072E16F4009407D077FD7E
:100C200009D00E94620607FC05D03EF4909581959C
:100C30009F4F0895709561957F4F0895A1E21A2EF8
:100C4000AA1BBB1BFD010DC0AA1FBB1FEE1FFF1F70
:100C5000A217B307E407F50720F0A21BB30BE40BC0
:100C6000F50B661F771F881F991F1A9469F7609507
:100C70007095809590959B01AC01BD01CF010895C1
:100C8000A29FB001B39FC001A39F700D811D1124CD
:100C9000911DB29F700D811D1124911D08950E9418
:100CA0004006A59F900DB49F900DA49F800D911DAF
:100CB00011240895B7FF0C944F060E944F06821B23
:100CC000930B0895AA1BBB1B51E107C0AA1FBB1FB2
:100CD000A617B70710F0A61BB70B881F991F5A95C8
:100CE000A9F780959095BC01CD010895F894FFCFA8
:100CF0002C0100001F1C1F1E1F1E1F1F1E1F1E1F5A
:00000001FF
