:100000000C9461000C947E000C947E000C947E0095
:100010000C947E000C947E000C947E000C947E0068
:100020000C947E000C947E000C947E000C947E0058
:100030000C947E000C947E000C947E000C947E0048
:100040000C94AE030C947E000C947E000C947E0005
:100050000C947E000C947E000C947E000C947E0028
:100060000C947E000C947E00000000002400270009
:100070002A0000000000250028002B0000000000DE
:1000800023002600290004040404040404040202DA
:100090000202020203030303030301020408102007
:1000A0004080010204081020010204081020000012
:1000B0000008000201000003040700000000000027
:1000C000000011241FBECFEFD8E0DEBFCDBF11E08E
:1000D000A0E0B1E0E0E6FBE002C005900D92AC309C
:1000E000B107D9F721E0ACE0B1E001C01D92A03327
:1000F000B207E1F70E94F8030C94AE050C940000DF
:10010000833081F028F4813099F08230A1F0089595
:100110008730A9F08830B9F08430D1F48091800024
:100120008F7D03C0809180008F7780938000089539
:1001300084B58F7702C084B58F7D84BD089580918A
:10014000B0008F7703C08091B0008F7D8093B000A6
:100150000895CF93DF93282F30E0F901E255FF4F48
:100160008491F901E656FF4FD491F901EA57FF4F08
:10017000C491CC2391F081110E948000EC2FF0E01B
:10018000EE0FFF1FE458FF4FA591B491EC91ED23C2
:1001900081E090E021F480E002C080E090E0DF9117
:1001A000CF9108951F93CF93DF93282F30E0F9016B
:1001B000E255FF4F8491F901E656FF4FD491F901C2
:1001C000EA57FF4FC491CC23C9F0162F81110E942A
:1001D0008000EC2FF0E0EE0FFF1FEE58FF4FA591CF
:1001E000B4918FB7F894111105C09C91ED2FE09553
:1001F000E92302C0EC91ED2BEC938FBFDF91CF91FF
:100200001F910895CF93DF9390E0FC01E656FF4FD6
:100210002491FC01EA57FF4F8491882361F190E01B
:10022000880F991FFC01E859FF4FC591D491FC013B
:10023000EE58FF4FA591B491611109C09FB7F89492
:100240008881209582238883EC912E230BC0623015
:1002500061F49FB7F8943881822F80958323888337
:10026000EC912E2B2C939FBF06C08FB7F894E8819A
:100270002E2B28838FBFDF91CF9108953FB7F8943D
:1002800080912C0190912D01A0912E01B0912F0110
:1002900026B5A89B05C02F3F19F00196A11DB11DE1
:1002A0003FBFBA2FA92F982F8827820F911DA11D1C
:1002B000B11DBC01CD0142E0660F771F881F991F59
:1002C0004A95D1F708958F929F92AF92BF92CF92A5
:1002D000DF92EF92FF920E943E014B015C018CE2A3
:1002E000C82EDD24D394E12CF12C0E943E01DC01C8
:1002F000CB0188199909AA09BB09883E9340A10539
:10030000B10558F021E0C21AD108E108F10888EEE1
:10031000880E83E0981EA11CB11CC114D104E10415
:10032000F10419F7FF90EF90DF90CF90BF90AF905E
:100330009F908F90089560931C0170931D0180938E
:100340001E0190931F01DC01CB01845D9E4FAF4FD6
:10035000BF4F8093180190931901A0931A01B09395
:100360001B0182E090E090931701809316012FB754
:10037000F8948091280190912901A0912A01B091CF
:100380002B012FBF8093120190931301A0931401AE
:10039000B093150108950F931F938FB7F8940091B0
:1003A00028011091290120912A0130912B018FBF42
:1003B0004091120150911301609114017091150147
:1003C000041B150B260B370B80911C0190911D010E
:1003D000A0911E01B0911F01083E13402105310577
:1003E000C0F00196A11DB11D80931C0190931D01C9
:1003F000A0931E01B0931F0148515C4F6F4F7F4F78
:1004000040931201509313016093140170931501EE
:10041000C4CF409118015091190160911A01709157
:100420001B0184179507A607B70788F1E091100113
:10043000F0911101309759F1099561157105810508
:10044000910519F00E949B0122C080911C0190919E
:100450001D01A0911E01B0911F01845D9E4FAF4F01
:10046000BF4F8093180190931901A0931A01B09384
:100470001B0181E090E02091160130911701232BA0
:1004800011F480E090E09093170180931601609141
:100490001C0170911D0180911E0190911F011F91FF
:1004A0000F9108954F925F926F927F928F929F92D9
:1004B000AF92BF92CF92DF92EF92FF920F931F9372
:1004C000CF93DF934B015C0180910C0190910D0162
:1004D000A0910E01B0910F0188169906AA06BB06DD
:1004E00009F4C2C08CE3C82ED12CE12CF12CC5013B
:1004F000B401A70196010E94570560932001CA012B
:10050000B901A70196010E94570560932101CA0114
:10051000B90128E130E040E050E00E945705690150
:100520007A0160932201CA01B9016C5F7F4F8F4F3E
:100530009F4F27E030E040E050E00E9457056F5F9A
:1005400060932301412C512C320140E004E610E07D
:10055000C0E9D1E0242F30E02E54384FF901E37088
:10056000FF27309789F4C901B8010E944305892B00
:1005700031F4C901BE010E944305892B29F48EE69E
:1005800091E0A0E0B0E004C08DE691E0A0E0B0E032
:10059000480E591E6A1E7B1ED301C201AA27BB2723
:1005A000C816D906EA06FB0610F04F5FD3CF40937A
:1005B0002601309799F4C90164E670E00E94430572
:1005C000892B39F4C90160E971E00E944305892B48
:1005D00029F48EE691E0A0E0B0E004C08DE691E061
:1005E000A0E0B0E0481A590A6A0A7B0AC418D50884
:1005F000E608F708C90164E670E00E944305EC01D3
:10060000C90160E971E00E944305A0E0B1E020E08B
:10061000213039F4309749F4209729F4009729F4D0
:1006200002C04C9103C04DE101C04CE150E060E0DC
:1006300070E0C416D506E606F70640F0C41AD50ADF
:10064000E60AF70A2F5F11962C3011F72F5F2093DF
:100650002501C394C092240180920C0190920D0157
:10066000A0920E01B0920F01DF91CF911F910F91D7
:10067000FF90EF90DF90CF90BF90AF909F908F90C2
:100680007F906F905F904F900895EF92FF921F932D
:10069000CF93DF937C01C5E0D0E01FE0C7010C2EB3
:1006A00002C0959587950A94E2F780FF04C061E047
:1006B000812F8C1B03C060E0812F8C1B0E94D20015
:1006C000219760F7DF91CF911F91FF90EF900895F0
:1006D000EF92FF921F93CF93DF937C01C5E0D0E0B0
:1006E00019E0C7010C2E02C0959587950A94E2F790
:1006F00080FF04C061E0812F8C1B03C060E0812F6C
:100700008C1B0E94D200219760F7DF91CF911F913F
:10071000FF90EF900895EF92FF921F93CF93DF9396
:100720007C01C3E0D0E013E0C7010C2E02C0959518
:1007300087950A94E2F780FF04C061E0812F8C1B4B
:1007400003C060E0812F8C1B0E94D200219760F7CC
:10075000DF91CF911F91FF90EF9008951F920F921C
:100760000FB60F9211242F933F938F939F93AF93C4
:10077000BF938091280190912901A0912A01B09105
:100780002B013091270123E0230F2D3720F4019610
:10079000A11DB11D05C026E8230F0296A11DB11DA4
:1007A000209327018093280190932901A0932A0187
:1007B000B0932B0180912C0190912D01A0912E01DD
:1007C000B0912F010196A11DB11D80932C01909332
:1007D0002D01A0932E01B0932F01BF91AF919F9156
:1007E0008F913F912F910F900FBE0F901F901895F2
:1007F000789484B5826084BD84B5816084BD85B5FC
:10080000826085BD85B5816085BD80916E00816007
:1008100080936E00109281008091810082608093AD
:1008200081008091810081608093810080918000AF
:100830008160809380008091B10084608093B100DA
:100840008091B00081608093B00080917A008460D4
:1008500080937A0080917A00826080937A00809100
:100860007A00816080937A0080917A00806880931A
:100870007A001092C100C0E061E08C2F0E9402015A
:10088000CF5FC031C9F762E080E10E94020162E0FF
:1008900081E10E9402010E94CB010E94520294E673
:1008A000692E712C20E9E22EFF24F39430E0C32E50
:1008B00030E0D32E80E10E94A900892B09F10E942B
:1008C000CB010E9452028091220190E00E948B0392
:1008D0000E94CB010E9452028091210190E00E946F
:1008E00068030E94CB010E9452028091200190E097
:1008F0000E944503C114D104E9F20E940000DACF3E
:1009000080E090E00E9445030E94CB010E945202C9
:100910000091220110E00E94CB010E945202C0917E
:100920002101B12CC8010E948B0381E10E94A90022
:10093000892B61F40B3011051CF40F5F1F4F02C0AF
:1009400000E010E00E946301BB24B39480E10E94A8
:10095000A900892B39F7BB2029F3D0E0A12CCE01C7
:100960000E94680381E10E94A900892B51F4CB33D6
:10097000D10514F4219602C0C0E0D0E00E946301CA
:10098000AB2C80E10E94A900892B49F7AA2039F3FA
:100990008AE2809326018CE08093250180932401D4
:1009A00000932201C09321011092200122EB37E035
:1009B000812C83E7982E82EFA82E8EE4B82EC901F1
:1009C00083709927892B99F4C901B3010E944305CB
:1009D000892B31F4C901B7010E944305892B39F4F1
:1009E00080E8880E81E5981E81E0A81EB11C2F5F6B
:1009F0003F4F2C3D87E0380711F7E1E0F0E0E230AF
:100A0000F10541F420E8820E2BE3921E26E2A21E9D
:100A1000B11C0FC0DF01A150BF4FAC91B0E020E886
:100A200031E541E050E00E948005860E971EA81E29
:100A3000B91E3196EC30F10511F720E13EE0D80106
:100A40000E9479051B012C0120E8220E321E2EE0A7
:100A5000421E511C2CE330E0DE010E947905DC01CE
:100A6000CB01820D931DA41DB51DBC01CD01680DE8
:100A7000791D8A1D9B1D0E949B0180E10E94A90097
:100A8000892BD9F31CCF97FB072E16F4009407D0BF
:100A900077FD09D00E948B0507FC05D03EF49095A8
:100AA00081959F4F0895709561957F4F0895A1E2BC
:100AB0001A2EAA1BBB1BFD010DC0AA1FBB1FEE1FD8
:100AC000FF1FA217B307E407F50720F0A21BB30B23
:100AD000E40BF50B661F771F881F991F1A9469F79F
:100AE00060957095809590959B01AC01BD01CF01FB
:100AF00008950E949F05B7FF0895821B930B0895E8
:100B00000E949F05A59F900DB49F900DA49F800DFE
:100B1000911D11240895AA1BBB1B51E107C0AA1FF8
:100B2000BB1FA617B70710F0A61BB70B881F991F8E
:100B30005A95A9F780959095BC01CD010895A29F83
:100B4000B001B39FC001A39F700D811D1124911DA1
:100B5000B29F700D811D1124911D0895F894FFCF4F
:0C0B60001F1C1F1E1F1E1F1F1E1F1E1F1C
:00000001FF
